:100000000C9434000C9451000C9451000C94510049
:100010000C94DA010C9451000C9451000C94510092
:100020000C9451000C9453000C9451000C9451000A
:100030000C9451000C9451000C9451000C945100FC
:100040000C9451000C9451000C9451000C945100EC
:100050000C945100E100F500E300E500E700E90041
:10006000EB00ED00EF00F10011241FBECFE5D4E05E
:10007000DEBFCDBF10E0A0E6B0E0ECE6FFE002C0DE
:1000800005900D92AA36B107D9F720E0AAE6B0E0B4
:1000900001C01D92A638B207E1F70E9490030C94AC
:1000A000B4070C9400001F920F920FB60F92112408
:1000B0002F933F934F935F936F937F938F939F9370
:1000C000AF93BF93EF93FF9380916C0090916D007D
:1000D0009C012F5F3F4F30936D0020936C000A9777
:1000E00009F03FC080916A0090916B000196609189
:1000F000830070E00E947D0490936B0080936A00FF
:10010000E0917500F09176008091730080FF0AC045
:1001100020916A0030916B0081E001C0880F2A9520
:10012000EAF70EC080916A0090916B0021E030E008
:10013000A90102C0440F551F8A95E2F7CA018095B4
:100140008083E0917F00F0918000A0916A00B091DF
:100150006B00A958BF4F8C91808310926D00109254
:100160006C00FF91EF91BF91AF919F918F917F9123
:100170006F915F914F913F912F910F900FBE0F9014
:100180001F9018952091830030E01216130674F426
:10019000409173004170419580E090E0FC01E95886
:1001A000FF4F4083019682179307C4F3089590E0B0
:1001B000FC01F097EA30F105B0F4E65DFF4F0C94D6
:1001C000B3048FE308958BE508958FE4089586E6E0
:1001D00008958DE608958DE7089587E008958FE7E7
:1001E00008958FE6089580E0089586E008959F922F
:1001F000AF92BF92CF92DF92EF92FF920F931F9335
:10020000CF93DF93FC010091830010E010161106DC
:100210007CF52081222361F1A0907400809173000D
:100220008170982E6F018FEFC81AD80AC0E0D0E015
:10023000B12C05C0F60121916F012223C9F0CE0136
:100240008A0D9B1DB8010E947D047C01992029F034
:10025000822F0E94D700809503C0822F0E94D70072
:10026000F701E958FF4F80832196C017D10714F397
:10027000DF91CF911F910F91FF90EF90DF90CF9082
:10028000BF90AF909F900895CF93DF93CDB7DEB727
:1002900029970FB6F894DEBF0FBECDBF8A30910507
:1002A0009CF49F938F9384E690E09F938F93CE016D
:1002B00001969F938F930E94E3040F900F900F90ED
:1002C0000F900F900F9012C09F938F9380E690E055
:1002D0009F938F93CE0101969F938F930E94E30487
:1002E0000F900F900F900F900F900F90CE010196EE
:1002F0000E94F70029960FB6F894DEBF0FBECDBF5F
:10030000DF91CF91089582E083BF89B7816089BF73
:100310000895EF92FF920F931F9380938300617073
:100320006093730050938500409384003093800065
:1003300020937F001093820000938100F09276005A
:10034000E09275008FEFFA018083E0917F00F091D9
:1003500080001082E0918100F09182001082E09193
:100360007500F09176008083809183008823C9F026
:1003700080E090E041E050E0E0918100F091820067
:1003800060819A01082E02C0220F331F0A94E2F7FF
:10039000262B208301962091830030E0821793075B
:1003A0005CF3109274000E9483011F910F91FF90E3
:1003B000EF9008951F920F920FB60F9211248F9312
:1003C0009F93AF93BF9385E085BD80916E0081FFC1
:1003D00040C080916E0082FF20C080916F0090919C
:1003E0007000A0917100B0917200892B8A2B8B2B29
:1003F00039F180916F0090917000A0917100B091DF
:1004000072000197A109B10980936F009093700069
:10041000A0937100B093720013C080916F0090910F
:100420007000A0917100B09172000196A11DB11DE4
:1004300080936F0090937000A0937100B09372004E
:1004400080916E0080FD05C080916E008160809378
:100450006E00BF91AF919F918F910F900FBE0F9043
:100460001F90189560916F007091700080917100DD
:100470009091720020E13EE040E050E00E94910443
:100480002CE330E040E050E00E949104CB0108955D
:1004900060916F0070917000809171009091720076
:1004A00020E13EE040E050E00E9491042CE330E087
:1004B00040E050E00E949104C9010895EF92FF923C
:1004C0000F931F93CF93DF9300D000D0CDB7DEB74B
:1004D0007C010E9432028C0140916F0050917000AB
:1004E000609171007091720049835A836B837C83A1
:1004F000C7016CE370E00E947D04992364F1498197
:100500005A816B817C81222717FD2095322F401B59
:10051000510B620B730B49835A836B837C83498134
:100520005A816B817C81AA2797FDA095BA2F840FF1
:10053000951FA61FB71F89839A83AB83BC838981CC
:100540009A81AB81BC8180936F0090937000A093DF
:100550007100B09372000F900F900F900F90DF9189
:10056000CF911F910F91FF90EF900895CF92DF925E
:10057000EF92FF92CF93DF9300D000D0CDB7DEB7DC
:100580007C010E944802FC0140916F005091700074
:10059000609171007091720049835A836B837C83F0
:1005A000C7016CE370E00E947D04AC01992364F103
:1005B000C980DA80EB80FC802CE330E0DF010E9410
:1005C000B904C61AD70AE80AF90AC982DA82EB82A4
:1005D000FC82C980DA80EB80FC80DA010E94B904D9
:1005E000C60ED71EE81EF91EC982DA82EB82FC8293
:1005F00089819A81AB81BC8180936F009093700058
:10060000A0937100B09372000F900F900F900F9015
:10061000DF91CF91FF90EF90DF90CF900895CF9230
:10062000DF92EF92FF920F931F93CF93DF9300D04F
:1006300000D0CDB7DEB78C0160916F007091700073
:10064000809171009091720020E13EE040E050E026
:100650000E94910480916F0090917000A0917100B0
:10066000B091720089839A83AB83BC83112364F1B8
:10067000C980DA80EB80FC80D90120E13EE00E9455
:10068000B904C61AD70AE80AF90AC982DA82EB82E3
:10069000FC82C980DA80EB80FC80D8010E94B9041A
:1006A000C60ED71EE81EF91EC982DA82EB82FC82D2
:1006B00089819A81AB81BC8180936F009093700097
:1006C000A0937100B09372000F900F900F900F9055
:1006D000DF91CF911F910F91FF90EF90DF90CF901E
:1006E000089589B7806489BF80916E00826080938D
:1006F0006E00089589B78F7B89BF80916E008D7FD2
:1007000080936E00089580916E008695817090E0D0
:10071000089582B5886082BD14BC85E085BD0895CA
:1007200081E087BB80E188BB0F2EF5E3EF2EF12C33
:10073000F02D04E310E022E330E041E350E061E01B
:1007400084E00E9489010E94890380916E00846088
:1007500080936E008CE090E00E940F0378940E94DA
:10076000C20011E0C1E001E00F2EF0E1CF2EFEE06B
:10077000DF2EE12CF12CF02DD2E080916F009091D2
:100780007000A0917100B0917200892B8A2B8B2B85
:1007900049F40E948303892B29F00E947A03C09AAE
:1007A000102FC02F1092740060916F007091700034
:1007B0008091710090917200A70196010E949104AE
:1007C000C9010E944401D09374000E9448020E9413
:1007D0004401B29938C00E948303892BA1F50E947D
:1007E0008303892B39F5C0FF12C060916F007091AF
:1007F00070008091710090917200A70196010E9493
:100800009104C90101960E940F03102F13C0C1FF6C
:1008100007C00E94480201960E94B602102F0AC02B
:10082000C2FF07C00E94320201960E945E02102F92
:1008300001C0102F8FE39CE90197F1F700C0000081
:10084000B29BFECF9ACFB39938C00E948303892B05
:10085000A1F50E948303892B39F5C0FF12C0609176
:100860006F00709170008091710090917200A701EB
:1008700096010E949104C90101970E940F03102F55
:1008800013C0C1FF07C00E94480201970E94B60230
:10089000102F0AC0C2FF07C00E94320201970E94B7
:1008A0005E02102F01C0102F8FE39CE90197F1F732
:1008B00000C00000B39BFECF60CFB4995ECF0E9412
:1008C0008303892B29F00E947A03102FC02F0CC0BC
:1008D000112341F0CC0FC3FF07C00E94710310E049
:1008E000C0E002C00E9471038FE39CE90197F1F719
:1008F00000C00000B49BFECF40CF97FB072E16F43C
:10090000009407D077FD09D00E94C00407FC05D0F1
:100910003EF4909581959F4F0895709561957F4F16
:100920000895A1E21A2EAA1BBB1BFD010DC0AA1F30
:10093000BB1FEE1FFF1FA217B307E407F50720F048
:10094000A21BB30BE40BF50B661F771F881F991FC3
:100950001A9469F760957095809590959B01AC010C
:10096000BD01CF010895EE0FFF1F0590F491E02D1A
:1009700009940E94D404B7FF0895821B930B089535
:10098000AA1BBB1B51E107C0AA1FBB1FA617B707B5
:1009900010F0A61BB70B881F991F5A95A9F78095D1
:1009A0009095BC01CD010895A29FB001B39FC001F5
:1009B000A39F700D811D1124911DB29F700D811D8B
:1009C0001124911D0895AEE0B0E0E9EEF4E00C943E
:1009D0008B070D891E8986E08C831A8309838FEF2C
:1009E0009FE79E838D83AE01475E5F4F6F89788D51
:1009F000CE0101960E940505EF81F885E00FF11FF9
:100A000010822E96E4E00C94A707ACE0B0E0EBE097
:100A1000F5E00C947D077C016B018A01FC011782D3
:100A20001682838181FFBDC1CE0101964C01F70181
:100A30009381F60193FD859193FF81916F01882346
:100A400009F4ABC1853239F493FD859193FF81910F
:100A50006F01853229F4B70190E00E94ED06E7CFDF
:100A6000512C312C20E02032A0F48B3269F030F48C
:100A7000803259F0833269F420612CC08D3239F014
:100A8000803339F4216026C02260246023C02860AE
:100A900021C027FD27C030ED380F3A3078F426FF0B
:100AA00006C0FAE05F9E300D1124532E13C08AE079
:100AB000389E300D1124332E20620CC08E3221F46A
:100AC00026FD6BC1206406C08C3611F4206802C07C
:100AD000883641F4F60193FD859193FF81916F0172
:100AE0008111C1CF982F9F7D9554933028F40C5FCE
:100AF0001F4FFFE3F9830DC0833631F0833771F068
:100B0000833509F05BC022C0F801808189830E5FC4
:100B10001F4F44244394512C540115C03801F2E076
:100B20006F0E711CF801A080B18026FF03C0652DF7
:100B300070E002C06FEF7FEFC5012C870E94E206D4
:100B40002C0183012C852F77222E17C03801F2E06B
:100B50006F0E711CF801A080B18026FF03C0652DC7
:100B600070E002C06FEF7FEFC5012C870E94D706AF
:100B70002C012C852068222E830123FC1BC0832D91
:100B800090E048165906B0F4B70180E290E00E9468
:100B9000ED063A94F4CFF50127FC859127FE81916B
:100BA0005F01B70190E00E94ED0631103A94F1E048
:100BB0004F1A51084114510471F7E5C0843611F001
:100BC000893639F5F80127FF07C06081718182817C
:100BD00093810C5F1F4F08C060817181882777FD6A
:100BE0008095982F0E5F1F4F2F76B22E97FF09C06A
:100BF00090958095709561957F4F8F4F9F4F20689E
:100C0000B22E2AE030E0A4010E941F07A82EA818E7
:100C100044C0853729F42F7EB22E2AE030E025C06B
:100C2000F22FF97FBF2E8F36C1F018F4883579F096
:100C3000B4C0803719F0883721F0AFC02F2F206162
:100C4000B22EB4FE0DC08B2D8460B82E09C024FFD7
:100C50000AC09F2F9660B92E06C028E030E005C07C
:100C600020E130E002C020E132E0F801B7FE07C029
:100C700060817181828193810C5F1F4F06C060810A
:100C8000718180E090E00E5F1F4FA4010E941F075A
:100C9000A82EA818FB2DFF77BF2EB6FE0BC02B2D5C
:100CA0002E7FA51450F4B4FE0AC0B2FC08C02B2D50
:100CB0002E7E05C07A2C2B2D03C07A2C01C0752CFA
:100CC00024FF0DC0FE01EA0DF11D8081803311F477
:100CD000297E09C022FF06C07394739404C0822F3A
:100CE000867809F0739423FD13C020FF06C05A2CA8
:100CF000731418F4530C5718732C731468F4B70159
:100D000080E290E02C870E94ED0673942C85F5CF4D
:100D1000731410F4371801C0312C24FF12C0B7012E
:100D200080E390E02C870E94ED062C8522FF17C0FF
:100D300021FF03C088E590E002C088E790E0B7019A
:100D40000CC0822F867859F021FD02C080E201C0DC
:100D50008BE227FD8DE2B70190E00E94ED06A5141D
:100D600038F4B70180E390E00E94ED065A94F7CF83
:100D7000AA94F401EA0DF11D8081B70190E00E9470
:100D8000ED06A110F5CF332009F451CEB70180E272
:100D900090E00E94ED063A94F6CFF70186819781A4
:100DA00002C08FEF9FEF2C96E2E10C949907FC01B3
:100DB0000590615070400110D8F7809590958E0F86
:100DC0009F1F0895FC016150704001900110D8F7F9
:100DD000809590958E0F9F1F08950F931F93CF932B
:100DE000DF93182F092FEB018B8181FD03C08FEF5B
:100DF0009FEF20C082FF10C04E815F812C813D811A
:100E0000421753077CF4E881F9819F012F5F3F4F20
:100E100039832883108306C0E885F985812F0995D9
:100E2000892B29F72E813F812F5F3F4F3F832E83F0
:100E3000812F902FDF91CF911F910F910895FA018B
:100E4000AA27283051F1203181F1E8946F936E7F09
:100E50006E5F7F4F8F4F9F4FAF4FB1E03ED0B4E0FA
:100E60003CD0670F781F891F9A1FA11D680F791F3B
:100E70008A1F911DA11D6A0F711D811D911DA11D4C
:100E800020D009F468943F912AE0269F112430195C
:100E9000305D3193DEF6CF010895462F4770405DF7
:100EA0004193B3E00FD0C9F7F6CF462F4F70405DA6
:100EB0004A3318F0495D31FD4052419302D0A9F701
:100EC000EACFB4E0A6959795879577956795BA95FB
:100ED000C9F700976105710508959B01AC010A2EC1
:100EE00006945795479537952795BA95C9F7620F98
:100EF000731F841F951FA01D08952F923F924F923C
:100F00005F926F927F928F929F92AF92BF92CF9299
:100F1000DF92EF92FF920F931F93CF93DF93CDB7A2
:100F2000DEB7CA1BDB0B0FB6F894DEBF0FBECDBF1A
:100F300009942A88398848885F846E847D848C84EB
:100F40009B84AA84B984C884DF80EE80FD800C81F4
:100F50001B81AA81B981CE0FD11D0FB6F894DEBFD7
:0C0F60000FBECDBFED010895F894FFCF47
:0A0F6C002564000030256400000039
:00000001FF
